:100000009CCF1895189518951895189518951895CA
:100010001895189518951895189518951895189578
:1000200018951895189518953A9A04E018B1102764
:1000300018B90FE31DE023E0015010402040E1F724
:1000400000C00000F2CF00008895FECF0FE30DBF87
:1000500001E00EBFC0E2D1E003D0E6DFF4DFF3CF72
:1000600001E00895FFFFFFFFFFFFFFFFFFFFFFFF1E
:1000700025C01895189518951895189518951895E0
:10008000FFFFFFFFFFFFFFFFFFFFFFFFFFFFFFFF80
:10009000FFFFFFFFFFFFFFFFFFFFFFFFFFFFFFFF70
:1000A000FFFFFFFFFFFFFFFFFFFFFFFFFFFFFFFF60
:1000B000FFFFFFFFFFFFFFFFFFFFFFFFFFFFFFFF50
:101C000003000001000007B10F7C07B908B10F7C89
:101C100008B900EB0093BA0004E012C03898409A6B
:101C200001E20A95F1F7000000E0309901E011E0CF
:101C30000127089500E017B710FD01E0089504E9B9
:101C40000093BC0008950093BB0004E8F9DF009105
:101C5000BC0007FFFCCFA8950091B900003C11F42F
:101C600004E801C004E9ECCF24EC2093BC002091EF
:101C7000BC0027FFFCCFA8952091B900203811F4B3
:101C800018D001C002C001E00895D9DF00E0089536
:101C900024E82093BC002091BC0027FFFCCFA8952E
:101CA0002091B900283821F404D004E8C9DFEBCF33
:101CB000ECCF2091BB00F8012083089523E0F801C8
:101CC00027BFE89507B700FDFDCF36D007B700FD69
:101CD000FDCF08953FD1C801807C082F012B51F41E
:101CE000E0E0F0E0049000920301E1E00490009253
:101CF000040102C01C31F0F4082FE0DFA3E0B1E0E2
:101D00008C0120E231E0FD0111800C90F80137BF19
:101D1000E8950E5F1F4F12962A95A9F705E0FC0182
:101D200007BFE89507B700FDFDCF06D007B700FD58
:101D3000FDCFA895E4E013C111E1002417BFE89599
:101D4000089509D1229707B700FF02C078DF18C0B5
:101D500083E091E08E010F5F1F4F76D089F073D042
:101D600079F0A0E08C0170D059F00196A395AF33C3
:101D7000C8F38C018DDF002319F018810981AADFD7
:101D80002296E3E0EDC08F930F92002488E1A8959E
:101D90008093600000925400009260000F908F9139
:101DA000089500E04DDF08B907B9E4E1F0E00994D7
:101DB000D2D000E02FEF10E0F801ED5FFE4F20835E
:101DC00003950034C0F300E085DF80E490E0AFE6E7
:101DD000807C9C3110F48C0171DF805C9F4FAA9550
:101DE000B9F7CFCF0F928F930090020188E1082AB4
:101DF000A89580936000009260008F910F900895E5
:101E0000219721D0F1F008810A9549F00A9549F00F
:101E10000A9559F00A9571F00A9579F011C091DF91
:101E200010C015D0B0DFBDDFFFCF11D002E00093AE
:101E3000000107C00CD001E0FACF09D0B9DF01C022
:101E4000FEDE219608958E010FDF002308958E0196
:101E50001FCFF999FECF01BD01E00FBB00B5F9011D
:101E600000830895219704ECEBDE0091BC0007FF8E
:101E7000FCCFA8950091B900085A21F0085BD1F475
:101E8000BFDF19C000910001002319F4D3DEDBDEAF
:101E900012C0013029F400E00093000108E8F7CFF8
:101EA000023049F400E0009300019E0105E0D1DF1B
:101EB0000881EDCFC4DEC5CF06B306BB00E00093BA
:101EC00085000093840005E81EE1109389000093CB
:101ED00088000DE000938100089500E00093010167
:101EE000EBDFE1E0B19B06C0F1E0008103950083E8
:101EF00006B306BB009101010A30A0F300E0EACF6F
:101F000004B700FF0CC000E004BF07B10C6007B9C4
:101F100008B1037F08B9E1DF08B10C6008B97EDEC3
:101F2000002339F070DE01E2009302015BDF9ADFEB
:101F3000FECF37CF00008895FECF02E50DBF01E050
:101F40000EBFC3E9D1E014D0002309F021D0D8DFBF
:101F5000F1DFF0CFBA93AA939A938A930895BB8145
:101F6000AA8199818881F0E0EC0FFD1FEF010895AF
:101F700001E0089520E006D0E9F70895259102D008
:101F8000E9F708952D9301501040202F212B08953B
:101F900080E09CE1FC0105911491FC013296A59131
:101FA000B491FC01349625913491422F432B19F0C2
:101FB000F901E4DF01C0DEDF06961CE186309107FF
:101FC00048F30895FFFFFFFFFFFFFFFFFFFFFFFF45
:101FD000FFFFFFFFFFFFFFFFFFFFFFFFFFFFFFFF11
:101FE000FFFFFFFFFFFFFFFFFFFFFFFFFFFFFFFF01
:101FF000FFFFFFFFFFFFFFFFFFFFFFFFFFFFFFFFF1
:00000001FF
